:1000000002308A007E2A0000FF00030E8301A10057
:100010000A08A0008A010408A2007708A300780853
:10002000A4007908A5007A08A600831383120B1E8A
:100030001B288B182C28220884002308F70024088A
:10004000F8002508F9002608FA0020088A00210E89
:100050008300FF0E7F0E09008A110A1237280A104A
:100060008A100A11820728340C3401340634A70A96
:100070002708033C031D3D28A7018B108B108A1114
:100080000A121B284937E931E9307210E337ED30A5
:100090006E32EF390000D9377537E7332021EF3062
:1000A00072320001C337ED306E326F1031004537C8
:1000B000E3326E326539203665327300C337ED3076
:1000C0006E326F103200D03072386132E53072100B
:1000D000EC32E439000083161F149F141F159F1182
:1000E0001F1383121F139F1383169F1383121F1452
:1000F0008316091283129412AA122A088316870003
:1001000083122A162A08831687008312AA112A0846
:100110008316870001308312940000308316940008
:100120000108C73908388100831290010030F800B7
:10013000920000308316920007309C00050885006D
:100140000330F700F70BA2281C0883120D13831647
:100150009D0183120B16C0308B048A110A12C62A25
:100160002F308400831300080319C4280130F800DD
:10017000F701F70BB928F80BB8284A30F700F70B4E
:10018000BF28C228800BB6280800360EF039F700C9
:100190000F3008057704880000000814CF280810E5
:1001A00008000808F700080E0F39F800080088104A
:1001B0000F3083160805F0388800831208150000F8
:1001C00008140000D1207808B600081000000814B8
:1001D0000000D1207808B50008100F3083160805FC
:1001E00088008312360EF700F030F70577083504E3
:1001F000F8007808B500B51BD828331C88103318D0
:1002000088140000081100000810340EB5000F30EB
:10021000B5053508B600C52034080F39B500B6005D
:10022000C52008000F3083160805880008108810C4
:10023000081183128810081108100F30AF00B02089
:100240000130AB002B08033C031C2E290330B60001
:10025000C5200530AF00B020AB0A22290230B6001D
:10026000C520AB012B08033C031C3F292B082F2082
:10027000AC00B3012C08B400D720AB0A3229080027
:10028000300B432946294030B1004729B1010130E4
:100290002F02B10731088038B200B3013208B40030
:1002A000D72008002E080C3A03195D29063A0319D5
:1002B0006529023A03196B297029B3010130B40092
:1002C000D7200230AF00B02076290130AF000230D5
:1002D000B00040217629B3011030B400D720762930
:1002E0000130B3002E08B400D72076290800831609
:1002F00003178C170C140000000083120C087F39C0
:100300000319BB290313AB0003170D080313AC003B
:1003100003170F080313AD002B08AE0052212C0861
:1003200003178D0003132D0803178F0083168C17F6
:100330000C140000000083120C0D0E0D7F39031900
:10034000BB290313AB0003170D080313AC000317FD
:100350000F080313AD002B08AE0052212C08031721
:100360008D0003132D0803178F008D0A03198F0AC0
:1003700003137729031703130800831686148312C7
:10038000A8018618A80A831606158312A901061962
:10039000A90A27080319D329013A0319F829033AAE
:1003A0000319282A722A12210130AF00B00040211F
:1003B000423003178D0000308F0003137721013086
:1003C000AF000230B00040214B3003178D000030E9
:1003D0008F0003137721280BF12983160510831250
:1003E0000510290BF72983168510831285107A2AA8
:1003F00012210330AF000130B0004021523003170A
:100400008D0000308F00031377210330AF000230DE
:10041000B0004021573003178D0000308F000313C8
:100420007721280B182A83160510831205141C2A1D
:100430008316051083120510290B232A83168510B5
:1004400083128514272A83168510831285107A2A31
:1004500012210330AF000130B00040215E3003179D
:100460008D0000308F00031377210330AF0002307E
:10047000B0004021633003178D0000308F0003135C
:100480007721280B592A8316051083120514023090
:10049000AB00FA30AF00B020AB0B492A8316051031
:1004A000831205100230AB00FA30AF00B020AB0B66
:1004B000542A290B712A8316851083128514023061
:1004C000AB00FA30AF00B020AB0B612A8316851069
:1004D000831285100230AB00FA30AF00B020AB0BB6
:1004E0006C2A7A2A8316051083120510831685104C
:1004F00083128510BD298A110A12C72A03081F39E1
:1005000083005730F7002030840083138001840A71
:10051000F70B862AF801F901FA01FB01FC01FD0144
:10052000FE015030F700A030840083138001840A5C
:10053000F70B962A6030F700103084008317800193
:10054000840AF70B9F2A83136030F70090308400F1
:1005500083178001840AF70BA92A8313A001840161
:1005600083131F308305193083169900A630980035
:1005700090308312980083161F149F141F159F112B
:1005800007309C00FF308312AA006B28BD2963004E
:02400E00723FFF
:00000001FF
;PIC16F877A
;CRC=1429  CREATED="29-abr.-19 19:03"
