:1000000000308A000428000003081F39830057309D
:10001000F7002030840083138001840AF70B0C283A
:10002000F801F901FA01FB01FC01FD01FE0150306C
:10003000F700A030840083138001840AF70B1C288A
:100040006030F7001030840083178001840AF70BBA
:10005000252883136030F7009030840083178001D7
:10006000840AF70B2F288313A001840183131F3008
:10007000830583161F149F141F159F1107309C00C2
:10008000FF308312A10083161F149F141F159F11A8
:100090001F1383121F139F1383169F1383121F14A2
:1000A0008316091283129412A11221088316870065
:1000B000831221162108831687008312A1112108BB
:1000C0008316870001308312940000308316940059
:1000D0000108C73908388100831290010030F80008
:1000E000920000308316920007309C0005088500BE
:1000F0000330F700F70B7A281C0883120D138316C0
:100100009D0106148312A0010618A00A200B8D2859
:100110008316051083120514912883160510831287
:0801200005108316812863001D
:02400E00323F3F
:00000001FF
;PIC16F877A
;CRC=2BBA  CREATED="06-jul.-19 19:29"
