:1000000001308A00252900000A108A100A1182078F
:1000100028340C3401340634E53CA0327910E53C38
:100020000000E330EC3661326F10D02AD427000094
:100030000808F700080E0F39F8000800320EF039F2
:10004000F7000F30080577048800000008142828FE
:100050000810080088100F3083160805F038880053
:100060008312081500000814000018207808B20058
:10007000081000000814000018207808B1000810CB
:100080000F308316080588008312320EF700F03017
:10009000F70577083104F8007808B100B11B2B2868
:1000A0002F1C88102F188814000008110000081059
:1000B000300EB1000F30B1053108B2001E203008FB
:1000C0000F39B100B2001E2008002C0B68286B28E5
:1000D0004030AD006C28AD0101302B02AD072D087A
:1000E0008038AE00AF012E08B0002A2008002B3067
:1000F00084008313000803198B280130F800F701EE
:10010000F70B8028F80B7F284A30F700F70B86287A
:100110008928800B7D2808002A080C3A03199728A3
:10012000063A03199F28023A0319A528AA28AF0105
:100130000130B0002A200230AB007720B028013017
:10014000AB000230AC006520B028AF011030B00029
:100150002A20B0280130AF002A08B0002A20B02899
:1001600008000F3083160805880008108810081151
:1001700083128810081108100F30AB00772001306F
:10018000A7002708033C031CCD280330B2001E2023
:100190000530AB007720A70AC1280230B2001E202C
:1001A000A7012708033C031CDE2827080420A80019
:1001B000AF012808B0002A20A70AD128080083161A
:1001C00003178C170C140000000083120C087F39F1
:1001D000031923290313A70003170D080313A8000D
:1001E00003170F080313A9002708AA008C2028086A
:1001F00003178D000313290803178F0083168C172C
:100200000C140000000083120C0D0E0D7F39031931
:1002100023290313A70003170D080313A8000317CE
:100220000F080313A9002708AA008C202808031729
:100230008D000313290803178F008D0A03198F0AF5
:100240000313DF2803170313080003081F39830073
:100250005730F7002030840083138001840AF70BA5
:100260002D29F801F901FA01FB01FC01FD01FE0154
:100270005030F700A030840083138001840AF70B0C
:100280003D296030F7001030840083178001840A14
:10029000F70B462983136030F700903084008317F2
:1002A0008001840AF70B50298313A0018401831372
:1002B0001F308305A101A001A30183161F149F1401
:1002C0001F159F1107309C00FF308312A600F930E4
:1002D000A4000130A5000030F80006389200FF307D
:1002E0008316920083122611260883168700831234
:1002F00007110C309700A61026088316870083127A
:1003000087100C309D0095019B0183161F109F10D4
:100310001F119F111F1383121F179F1783169F13FF
:1003200083121F14831606148312A2010618A20A50
:10033000831686148312A3018618A30A220BDA29D6
:10034000A308031DDA290030F8001F08C739780414
:100350009F002130F700F70BAB291F151F19AE299D
:100360001E08A101A0002108F9002008F800F90CDE
:10037000F80CF90CF80CF90C78089B00F90C790CC6
:100380003039F7001D08CF3977049D002612260862
:100390008316870083120716A61226088316870085
:1003A000831287120330AB000130AC00652020308F
:1003B000AA008C20230B162AA208031D162A00303F
:1003C000F8001F08C73978049F002130F700F70BA9
:1003D000E7291F151F19EA291E08A101A0002108FD
:1003E000F9002008F800F90CF80CF90CF80CF90CDD
:1003F00078089B00F90C790C3039F7001D08CF39CB
:1004000077049D002612260883168700831207169C
:10041000A612260883168700831287120330AB00CA
:100420000130AC0065202030AA008C20A208031DFA
:10043000322AA308031D322A9B012612260883169E
:10044000870083120712A6122608831687008312DC
:100450008712B1200330AB000130AC0065202030A2
:10046000AA008C20220B5C2A230B5C2A9B012612FB
:1004700026088316870083120712A6122608831601
:10048000870083128712B1200330AB000130AC002B
:1004900065200C3003178D0000308F000313DF2020
:1004A0000330AB000230AC006520113003178D0023
:0C04B00000308F000313DF20922963004E
:02400E00323F3F
:00000001FF
;PIC16F877A
;CRC=D09E  CREATED="17-ene-18 19:29"
