:1000000000308A0080280000233084008313000819
:10001000031918280130F800F701F70B0D28F80B29
:100020000C284A30F700F70B13281628800B0A28F3
:1000300008008C1E19281A08A000200B36288316E9
:100040000510831205140230A2009630A30004208C
:10005000A20B252883160510831205100230A2007A
:100060009630A3000420A20B30283A2883160510EE
:100070008312051019288A110A12C82883161F1422
:100080009F141F159F111F1383121F139F13831695
:100090009F1383121F148316091283129412A11244
:1000A00021088316870083122116210883168700F2
:1000B0008312A11121088316870001308312940056
:1000C0000030831694000108C73908388100831274
:1000D00090010030F8009200003083169200073043
:1000E0009C00050885000330F700F70B75281C08F5
:1000F00083120D1383169D0183128A110A12C928D7
:1001000003081F3983005730F70020308400831321
:100110008001840AF70B8828F801F901FA01FB0134
:10012000FC01FD01FE015030F700A0308400831374
:100130008001840AF70B98286030F70010308400A3
:1001400083178001840AF70BA12883136030F7001E
:100150009030840083178001840AF70BAB28831347
:10016000A001840183131F30830519308316990081
:10017000A630980090308312980083161F149F14A5
:100180001F159F1107309C00FF308312A100192812
:040190003E286300A2
:02400E00323F3F
:00000001FF
;PIC16F877A
;CRC=D54B  CREATED="08-jul.-19 16:54"
