:1000000001308A007F2900000A108A100A11820735
:1000100028340C3401340634C8326C366F00D937BA
:100020007537E733C2376139640083161F149F1494
:100030001F159F111F1383121F139F1383169F13E6
:1000400083121F148316091283129412A01220081F
:1000500083168700831220162008831687008312D8
:10006000A01120088316870001308312940000300D
:10007000831694000108C739083881008312900163
:100080000030F800920000308316920007309C0088
:10009000050885000330F700F70B4C281C08831275
:1000A0000D1383169D0183128A110A12BF29253070
:1000B00084008313000803196B280130F800F7014E
:1000C000F70B6028F80B5F284A30F700F70B66281B
:1000D0006928800B5D2808002C0EF039F7000F30DE
:1000E0000805770488000000081476280810080026
:1000F0000808F700080E0F39F800080088100F30C4
:1001000083160805F03888008312081500000814CB
:10011000000078207808AC000810000008140000E7
:1001200078207808AB0008100F3083160805880087
:1001300083122C0EF700F030F70577082B04F80037
:100140007808AB00AB1B7F28291C8810291888145D
:1001500000000811000008102A0EAB000F30AB059C
:100160002B08AC006C202A080F39AB00AC006C20C7
:100170000800260BBC28BF284030A700C028A701D4
:1001800001302502A70727088038A800A901280800
:10019000AA007E20080024080C3A0319D628063A43
:1001A0000319DE28023A0319E428E928A9010130DD
:1001B000AA007E200230A5005720EF280130A500BC
:1001C0000230A600B920EF28A9011030AA007E2035
:1001D000EF280130A9002408AA007E20EF2808009B
:1001E000831603178C170C140000000083120C08F0
:1001F0007F39031934290313A10003170D080313D2
:10020000A20003170F080313A3002108A400CB20AA
:10021000220803178D000313230803178F0083168A
:100220008C170C140000000083120C0D0E0D7F398A
:10023000031934290313A10003170D080313A200A7
:1002400003170F080313A3002108A400CB202208E2
:1002500003178D000313230803178F008D0A03195A
:100260008F0A0313F0280317031308000F308316B7
:1002700008058800081088100811831288100811DA
:1002800008100F30A50057200130A1002108033CC1
:10029000031C52290330AC006C200530A500572008
:1002A000A10A46290230AC006C20A1012108033CC0
:1002B000031C632921080420A200A9012208AA0026
:1002C0007E20A10A56290330A5000130A600B920DE
:1002D0000C3003178D0000308F000313F020033023
:1002E000A5000230A600B9200F3003178D000030A2
:1002F0008F000313F02036298A110A12C02903083F
:100300001F3983005730F7002030840083138001A9
:10031000840AF70B8729F801F901FA01FB01FC01B6
:10032000FD01FE015030F700A030840083138001EE
:10033000840AF70B97296030F70010308400831788
:100340008001840AF70BA02983136030F7009030F6
:10035000840083178001840AF70BAA298313A00164
:10036000840183131F30830583161F149F141F15E8
:100370009F1107309C00FF308312A00015283629FA
:02038000630018
:02400E00323F3F
:00000001FF
;PIC16F877A
;CRC=0C72  CREATED="20-dic-17 20:29"
