:1000000000308A0061280000831685108312851451
:100010008C1E08281A08A000A008031913288316AC
:100020000510831205142008613C031D1B2883164C
:1000300005108312051008288A110A12A9288316B0
:100040001F149F141F159F111F1383121F139F133B
:1000500083169F1383121F1483160912831294129E
:10006000A112210883168700831221162108831606
:1000700087008312A11121088316870001308312A3
:1000800094000030831694000108C73908388100B5
:10009000831290010030F800920000308316920025
:1000A00007309C00050885000330F700F70B562841
:1000B0001C0883120D1383169D0183128A110A12E4
:1000C000AA2803081F3983005730F7002030840026
:1000D00083138001840AF70B6928F801F901FA01FA
:1000E000FB01FC01FD01FE015030F700A03084004F
:1000F00083138001840AF70B79286030F7001030F1
:10010000840083178001840AF70B822883136030F0
:10011000F7009030840083178001840AF70B8C2845
:100120008313A001840183131F30830519308316C4
:100130009900A630980090308312980083161F14FF
:100140009F141F159F1107309C00FF308312A100E0
:0601500004281F286300D3
:02400E00323F3F
:00000001FF
;PIC16F877A
;CRC=0905  CREATED="21-jul.-19 15:02"
