:1000000001308A00C42900000A108A100A118207F0
:1000100028340C340134063483161F149F141F1522
:100020009F111F1383121F139F1383169F13831295
:100030001F148316091283129412A3122308831625
:100040008700831223162308831687008312A311C7
:100050002308831687000130831294000030831632
:1000600094000108C73908388100831290010030DC
:10007000F800920000308316920007309C000508BB
:1000800085000330F700F70B43281C0883120D137B
:1000900083169D0183128A110A12042A2B308400D0
:1000A00083130008031962280130F800F701F70BE9
:1000B0005728F80B56284A30F700F70B5D286028C0
:1000C000800B54280800320EF039F7000F30080575
:1000D00077048800000008146D280810080008083C
:1000E000F700080E0F39F800080088100F3083164B
:1000F0000805F03888008312081500000814000075
:100100006F207808B20008100000081400006F206B
:100110007808B10008100F30831608058800831294
:10012000320EF700F030F70577083104F800780850
:10013000B100B11B76282F1C88102F1888140000DE
:10014000081100000810300EB1000F30B105310861
:10015000B200632030080F39B100B20063200800FC
:100160002C0BB328B6284030AD00B728AD010130C4
:100170002B02AD072D088038AE00AF012E08B0006D
:10018000752008002B08F8012A020318CA282A083B
:10019000F700D628F7010830AC00AA0DF70D2B08A0
:1001A00077020318F700F80DAC0BCD2808002A08D9
:1001B0000C3A0319E228063A0319EA28023A03190D
:1001C000F028F528AF010130B00075200230AB00F7
:1001D0004E20FB280130AB000230AC00B020FB28E1
:1001E000AF011030B0007520FB280130AF002A08A5
:1001F000B0007520FB2808002030251E3030A600F6
:100200002408F700A41F0B29F709F70A7708A400B0
:100210002D30A600A5172408AA006430AB00C22028
:100220007708A40030307807A7002408AA000A3015
:10023000AB00C22030307707A90030307807A80023
:100240002608F700A51D2629A51F2511251A3329E3
:10025000A51F4E2925194E297708A700A5184E2954
:100260007708A8004E2930302702031D4E29770851
:10027000A7002030A600A51D41292511A514A51F02
:10028000A51030302802031D4E297708A800203021
:10029000A700A51D4129A510A51F2510251D53291F
:1002A0002608AA00D720A51C58292708AA00D7206D
:1002B000251C5D292808AA00D7202908AA00D720D4
:1002C0000800A0012008173C031CC029A101210837
:1002D0003B3C031CBE29A20122083B3C031CBC2959
:1002E000FA30AB004E200F30831608058800081046
:1002F0008810081183128810081108100F30AB0005
:100300004E200130A4002408033C031C8F29033035
:10031000B20063200530AB004E20A40A83290230CE
:10032000B2006320A4012408033C031CA029240874
:100330000420A500AF012508B0007520A40A932968
:100340000430AB000230AC00B0202008A4001F3005
:10035000A500FC202F30AA00D7202108A4001F30C0
:10036000A500FC202F30AA00D7202208A4001F30AF
:10037000A500FC20A20A6C29A10A6729A00A62290B
:1003800061298A110A12052A03081F398300573090
:10039000F7002030840083138001840AF70BCC29F6
:1003A000F801F901FA01FB01FC01FD01FE015030E9
:1003B000F700A030840083138001840AF70BDC2946
:1003C0006030F7001030840083178001840AF70B37
:1003D000E52983136030F700903084008317800193
:1003E000840AF70BEF298313A001840183131F30C4
:1003F000830583161F149F141F159F1107309C003F
:0C040000FF308312A3000C286129630068
:02400E00323F3F
:00000001FF
;PIC16F877A
;CRC=CA95  CREATED="05-jul.-19 16:03"
