:1000000001308A0063290000FF00030E8301A10074
:100010000A08A0008A010408A2007708A300780853
:10002000A4007908A5007A08A600831383120B1E8A
:100030001B288B182C28220884002308F70024088A
:10004000F8002508F9002608FA0020088A00210E89
:100050008300FF0E7F0E09008A110A1237280A104A
:100060008A100A11820728340C3401340634A70A96
:100070002708033C031D3D28A7018B108B108A1114
:100080000A121B28CD37EE340000F13A6510F33226
:10009000E1390001ED3A7910E632EC347A10201D96
:1000A0002900F432A038F53465396F002D30840012
:1000B0008313000803196A280130F800F701F70BD1
:1000C0005F28F80B5E284A30F700F70B6528682890
:1000D000800B5C280800340EF039F7000F3008055B
:1000E0007704880000000814752808100800080824
:1000F000F700080E0F39F800080088100F3083163B
:100100000805F03888008312081500000814000064
:1001100077207808B4000810000008140000772049
:100120007808B30008100F30831608058800831282
:10013000340EF700F030F70577083304F80078083C
:10014000B300B31B7E28311C8810311888140000BE
:10015000081100000810320EB3000F30B305330849
:10016000B4006B2032080F39B300B4006B200800D4
:100170000F308316080588000810881008118312B4
:100180008810081108100F30AD0056200130A9006A
:100190002908033C031CD4280330B4006B2005302D
:1001A000AD005620A90AC8280230B4006B20A9016E
:1001B0002908033C031CE52829082F20AA00B101C7
:1001C0002A08B2007D20A90AD82808002E0BE928A9
:1001D000EC284030AF00ED28AF0101302D02AF0711
:1001E0002F088038B000B1013008B2007D2008002F
:1001F0002C080C3A03190329063A03190B29023A71
:10020000031911291629B1010130B2007D200230F5
:10021000AD0056201C290130AD000230AE00E620B2
:100220001C29B1011030B2007D201C290130B10021
:100230002C08B2007D201C290800831603178C1798
:100240000C140000000083120C087F390319612987
:100250000313A90003170D080313AA0003170F08BF
:100260000313AB002908AC00F8202A0803178D00FF
:1002700003132B0803178F0083168C170C14000030
:10028000000083120C0D0E0D7F3903196129031331
:10029000A90003170D080313AA0003170F0803137F
:1002A000AB002908AC00F8202A0803178D000313BF
:1002B0002B0803178F008D0A03198F0A03131D29BA
:1002C00003170313080003081F3983005730F70092
:1002D0002030840083138001840AF70B6B29F80116
:1002E000F901FA01FB01FC01FD01FE015030F700AC
:1002F000A030840083138001840AF70B7B296030CF
:10030000F7001030840083178001840AF70B8429DA
:1003100083136030F7009030840083178001840AD3
:10032000F70B8E298313A001840183131F308305EB
:1003300083161F149F141F159F1107309C00FF3058
:100340008312A80083161F149F141F159F111F13DB
:1003500083121F139F1383169F1383121F14831678
:10036000091283129412A812280883168700831298
:1003700028162808831687008312A81128088316D8
:100380008700013083129400003083169400010826
:10039000C73908388100831290010030F8009200BC
:1003A00000308316920007309C000508850003305A
:1003B000F700F70BD9291C0883120D1383169D0132
:1003C000011783120B16C0308B04A708031DF429F4
:1003D000B8200130AD00AE00E620423003178D009A
:1003E00000308F0003131D21270B0E2AB820013087
:1003F000AD00AE00E620453003178D0000308F00C1
:1004000003131D210130AD000230AE00E6204A305A
:1004100003178D0000308F0003131D212708023CB5
:10042000031D1F2AB8200330AD000130AE00E620C6
:10043000513003178D0000308F0003131D21E52973
:02044000630057
:02400E00323F3F
:00000001FF
;PIC16F877A
;CRC=C386  CREATED="05-oct-18 20:59"
