:1000000000308A000428000003081F39830057309D
:10001000F7002030840083138001840AF70B0C283A
:10002000F801F901FA01FB01FC01FD01FE0150306C
:10003000F700A030840083138001840AF70B1C288A
:100040006030F7001030840083178001840AF70BBA
:10005000252883136030F7009030840083178001D7
:10006000840AF70B2F288313A001840183131F3008
:10007000830583161F149F141F159F1107309C00C2
:10008000FF308312A000831681131F149F141F15C5
:100090009F111F1383121F139F1383169F13831225
:1000A0001F148316091283129412A01220088316BB
:1000B0008700831220162008831687008312A01160
:1000C00020088316870001308312940000308316C5
:1000D00094000108C739083881008312900100306C
:1000E000F800920000308316920007309C0005084B
:1000F00085000330F700F70B7B281C0883120D13D3
:1001000083169D010614831206188B28831605108A
:10011000831205148F288316051083120510831689
:0401200082286300CE
:02400E00323F3F
:00000001FF
;PIC16F877A
;CRC=2E7A  CREATED="08-jul.-19 23:16"
